{
  "_format": "hh-sol-artifact-1",
  "contractName": "CustomDex",
  "sourceName": "contracts/CustomEx.sol",
  "abi": [
    {
      "inputs": [],
      "stateMutability": "nonpayable",
      "type": "constructor"
    },
    {
      "inputs": [],
      "name": "_historyIndex",
      "outputs": [
        {
          "internalType": "uint256",
          "name": "",
          "type": "uint256"
        }
      ],
      "stateMutability": "view",
      "type": "function"
    },
    {
      "inputs": [],
      "name": "getAllHistory",
      "outputs": [
        {
          "components": [
            {
              "internalType": "uint256",
              "name": "historyId",
              "type": "uint256"
            },
            {
              "internalType": "string",
              "name": "tokenA",
              "type": "string"
            },
            {
              "internalType": "string",
              "name": "tokenB",
              "type": "string"
            },
            {
              "internalType": "uint256",
              "name": "inputValue",
              "type": "uint256"
            },
            {
              "internalType": "uint256",
              "name": "outputValue",
              "type": "uint256"
            },
            {
              "internalType": "address",
              "name": "userAddress",
              "type": "address"
            }
          ],
          "internalType": "struct CustomDex.History[]",
          "name": "",
          "type": "tuple[]"
        }
      ],
      "stateMutability": "view",
      "type": "function"
    },
    {
      "inputs": [
        {
          "internalType": "string",
          "name": "tokenName",
          "type": "string"
        },
        {
          "internalType": "address",
          "name": "_address",
          "type": "address"
        }
      ],
      "name": "getBalance",
      "outputs": [
        {
          "internalType": "uint256",
          "name": "",
          "type": "uint256"
        }
      ],
      "stateMutability": "view",
      "type": "function"
    },
    {
      "inputs": [],
      "name": "getEthBalance",
      "outputs": [
        {
          "internalType": "uint256",
          "name": "",
          "type": "uint256"
        }
      ],
      "stateMutability": "view",
      "type": "function"
    },
    {
      "inputs": [
        {
          "internalType": "string",
          "name": "tokenName",
          "type": "string"
        }
      ],
      "name": "getName",
      "outputs": [
        {
          "internalType": "string",
          "name": "",
          "type": "string"
        }
      ],
      "stateMutability": "view",
      "type": "function"
    },
    {
      "inputs": [
        {
          "internalType": "string",
          "name": "tokenName",
          "type": "string"
        }
      ],
      "name": "getTokenAddress",
      "outputs": [
        {
          "internalType": "address",
          "name": "",
          "type": "address"
        }
      ],
      "stateMutability": "view",
      "type": "function"
    },
    {
      "inputs": [
        {
          "internalType": "string",
          "name": "tokenName",
          "type": "string"
        }
      ],
      "name": "getTotalSupply",
      "outputs": [
        {
          "internalType": "uint256",
          "name": "",
          "type": "uint256"
        }
      ],
      "stateMutability": "view",
      "type": "function"
    },
    {
      "inputs": [
        {
          "internalType": "string",
          "name": "tokenName",
          "type": "string"
        }
      ],
      "name": "swapEthToToken",
      "outputs": [
        {
          "internalType": "uint256",
          "name": "",
          "type": "uint256"
        }
      ],
      "stateMutability": "payable",
      "type": "function"
    },
    {
      "inputs": [
        {
          "internalType": "string",
          "name": "tokenName",
          "type": "string"
        },
        {
          "internalType": "uint256",
          "name": "_amount",
          "type": "uint256"
        }
      ],
      "name": "swapTokenToEth",
      "outputs": [
        {
          "internalType": "uint256",
          "name": "",
          "type": "uint256"
        }
      ],
      "stateMutability": "nonpayable",
      "type": "function"
    },
    {
      "inputs": [
        {
          "internalType": "string",
          "name": "srcTokenName",
          "type": "string"
        },
        {
          "internalType": "string",
          "name": "destTokenName",
          "type": "string"
        },
        {
          "internalType": "uint256",
          "name": "_amount",
          "type": "uint256"
        }
      ],
      "name": "swapTokenToToken",
      "outputs": [],
      "stateMutability": "nonpayable",
      "type": "function"
    },
    {
      "inputs": [
        {
          "internalType": "string",
          "name": "",
          "type": "string"
        }
      ],
      "name": "tokenInstanceMap",
      "outputs": [
        {
          "internalType": "contract ERC20",
          "name": "",
          "type": "address"
        }
      ],
      "stateMutability": "view",
      "type": "function"
    },
    {
      "inputs": [
        {
          "internalType": "uint256",
          "name": "",
          "type": "uint256"
        }
      ],
      "name": "tokens",
      "outputs": [
        {
          "internalType": "string",
          "name": "",
          "type": "string"
        }
      ],
      "stateMutability": "view",
      "type": "function"
    }
  ],
  "bytecode": "0x600a6101809081526915195d1a195c881554d160b21b6101a052608090815260036101c09081526221272160e91b6101e05260a0526008610200818152672aa9a21021b7b4b760c11b6102205260c0526005610240908152640e6e88aa8960db1b6102605260e0526004610280908152632a2927a760e11b6102a05261010052600b6102c09081526a26a0aa24a1902a37b5b2b760a91b6102e05261012052600961030090815268534849424120494e5560b81b61032052610140526103806040526007610340908152660556e69737761760cc1b6103605261016052620000ea916000916200020b565b50655af3107a40006002553480156200010257600080fd5b5060005b60005481101562000204576000808281548110620001285762000128620002f0565b9060005260206000200160008381548110620001485762000148620002f0565b90600052602060002001604051620001609062000268565b6200016d929190620003c7565b604051809103906000f0801580156200018a573d6000803e3d6000fd5b50905080600160008481548110620001a657620001a6620002f0565b90600052602060002001604051620001bf9190620003f9565b90815260405190819003602001902080546001600160a01b03929092166001600160a01b03199092169190911790555080620001fb8162000477565b91505062000106565b50620005d4565b82805482825590600052602060002090810192821562000256579160200282015b8281111562000256578251829062000245908262000508565b50916020019190600101906200022c565b506200026492915062000276565b5090565b610ca5806200177383390190565b80821115620002645760006200028d828262000297565b5060010162000276565b508054620002a59062000306565b6000825580601f10620002b6575050565b601f016020900490600052602060002090810190620002d69190620002d9565b50565b5b80821115620002645760008155600101620002da565b634e487b7160e01b600052603260045260246000fd5b600181811c908216806200031b57607f821691505b6020821081036200033c57634e487b7160e01b600052602260045260246000fd5b50919050565b60008154620003518162000306565b8085526020600183811680156200037157600181146200038c57620003bc565b60ff1985168884015283151560051b880183019550620003bc565b866000528260002060005b85811015620003b45781548a820186015290830190840162000397565b890184019650505b505050505092915050565b604081526000620003dc604083018562000342565b8281036020840152620003f0818562000342565b95945050505050565b6000808354620004098162000306565b600182811680156200042457600181146200043a576200046b565b60ff19841687528215158302870194506200046b565b8760005260208060002060005b85811015620004625781548a82015290840190820162000447565b50505082870194505b50929695505050505050565b6000600182016200049857634e487b7160e01b600052601160045260246000fd5b5060010190565b634e487b7160e01b600052604160045260246000fd5b601f8211156200050357600081815260208120601f850160051c81016020861015620004de5750805b601f850160051c820191505b81811015620004ff57828155600101620004ea565b5050505b505050565b81516001600160401b038111156200052457620005246200049f565b6200053c8162000535845462000306565b84620004b5565b602080601f8311600181146200057457600084156200055b5750858301515b600019600386901b1c1916600185901b178555620004ff565b600085815260208120601f198616915b82811015620005a55788860151825594840194600190910190840162000584565b5085821015620005c45787850151600019600388901b60f8161c191681555b5050505050600190811b01905550565b61118f80620005e46000396000f3fe6080604052600436106100a75760003560e01c806370ed0ada1161006457806370ed0ada1461017757806389f4b3171461018a578063a93325ed146101aa578063bf015aae14610203578063c409123614610225578063db6f63ee1461024557600080fd5b806319b3c12d146100ac57806339c5891a146100d55780634f64b2be146100f75780635463109e1461012457806363fcf7c5146101445780636932cf8114610157575b600080fd5b3480156100b857600080fd5b506100c260035481565b6040519081526020015b60405180910390f35b3480156100e157600080fd5b506100ea610265565b6040516100cc9190610bbc565b34801561010357600080fd5b50610117610112366004610c74565b6104d9565b6040516100cc9190610c8d565b34801561013057600080fd5b506100c261013f366004610d65565b610585565b6100c2610152366004610d65565b610610565b34801561016357600080fd5b50610117610172366004610d65565b6106f6565b34801561018357600080fd5b50476100c2565b34801561019657600080fd5b506100c26101a5366004610da2565b610783565b3480156101b657600080fd5b506101eb6101c5366004610d65565b80516020818301810180516001825292820191909301209152546001600160a01b031681565b6040516001600160a01b0390911681526020016100cc565b34801561020f57600080fd5b5061022361021e366004610e00565b610812565b005b34801561023157600080fd5b506101eb610240366004610d65565b610955565b34801561025157600080fd5b506100c2610260366004610e6d565b610986565b6003546060906000808267ffffffffffffffff81111561028757610287610ca0565b6040519080825280602002602001820160405280156102fa57816020015b6102e76040518060c00160405280600081526020016060815260200160608152602001600081526020016000815260200160006001600160a01b031681525090565b8152602001906001900390816102a55790505b50905060005b838110156104d1576000610315826001610ec8565b90506000600460008381526020019081526020016000209050806040518060c00160405290816000820154815260200160018201805461035490610edb565b80601f016020809104026020016040519081016040528092919081815260200182805461038090610edb565b80156103cd5780601f106103a2576101008083540402835291602001916103cd565b820191906000526020600020905b8154815290600101906020018083116103b057829003601f168201915b505050505081526020016002820180546103e690610edb565b80601f016020809104026020016040519081016040528092919081815260200182805461041290610edb565b801561045f5780601f106104345761010080835404028352916020019161045f565b820191906000526020600020905b81548152906001019060200180831161044257829003601f168201915b505050918352505060038201546020820152600482015460408201526005909101546001600160a01b031660609091015284518590879081106104a4576104a4610f15565b60209081029190910101526104ba600186610ec8565b9450505080806104c990610f2b565b915050610300565b509392505050565b600081815481106104e957600080fd5b90600052602060002001600091509050805461050490610edb565b80601f016020809104026020016040519081016040528092919081815260200182805461053090610edb565b801561057d5780601f106105525761010080835404028352916020019161057d565b820191906000526020600020905b81548152906001019060200180831161056057829003601f168201915b505050505081565b60006001826040516105979190610f44565b9081526040805160209281900383018120546318160ddd60e01b825291516001600160a01b03909216926318160ddd926004808401938290030181865afa1580156105e6573d6000803e3d6000fd5b505050506040513d601f19601f8201168201806040525081019061060a9190610f60565b92915050565b600254600090349082906106249083610f79565b61063690670de0b6b3a7640000610f9b565b90506001846040516106489190610f44565b9081526040519081900360200181205463a9059cbb60e01b8252336004830152602482018390526001600160a01b03169063a9059cbb906044016020604051808303816000875af11580156106a1573d6000803e3d6000fd5b505050506040513d601f19601f820116820180604052508101906106c59190610fb2565b6106ce57600080fd5b60408051808201909152600581526422ba3432b960d91b60208201526104d185828585610afe565b60606001826040516107089190610f44565b90815260408051918290036020018220546306fdde0360e01b835290516001600160a01b03909116916306fdde039160048083019260009291908290030181865afa15801561075b573d6000803e3d6000fd5b505050506040513d6000823e601f3d908101601f1916820160405261060a9190810190610fd4565b60006001836040516107959190610f44565b908152604051908190036020018120546370a0823160e01b82526001600160a01b03848116600484015216906370a0823190602401602060405180830381865afa1580156107e7573d6000803e3d6000fd5b505050506040513d601f19601f8201168201806040525081019061080b9190610f60565b9392505050565b6001836040516108229190610f44565b908152604051908190036020018120546323b872dd60e01b8252336004830152306024830152604482018390526001600160a01b0316906323b872dd906064016020604051808303816000875af1158015610881573d6000803e3d6000fd5b505050506040513d601f19601f820116820180604052508101906108a59190610fb2565b6108ae57600080fd5b6001826040516108be9190610f44565b9081526040519081900360200181205463a9059cbb60e01b8252336004830152602482018390526001600160a01b03169063a9059cbb906044016020604051808303816000875af1158015610917573d6000803e3d6000fd5b505050506040513d601f19601f8201168201806040525081019061093b9190610fb2565b61094457600080fd5b61095083838384610afe565b505050565b60006001826040516109679190610f44565b908152604051908190036020019020546001600160a01b031692915050565b60008061099b670de0b6b3a764000084610f79565b90506000600254826109ad9190610f9b565b905080471015610a035760405162461bcd60e51b815260206004820152601a60248201527f4465782069732072756e6e696e67206c6f772062616c616e6365000000000000604482015260640160405180910390fd5b604051339082156108fc029083906000818181858888f19350505050158015610a30573d6000803e3d6000fd5b50600185604051610a419190610f44565b908152604051908190036020018120546323b872dd60e01b8252336004830152306024830152604482018690526001600160a01b0316906323b872dd906064016020604051808303816000875af1158015610aa0573d6000803e3d6000fd5b505050506040513d601f19601f82011682018060405250810190610ac49190610fb2565b610acd57600080fd5b60408051808201909152600581526422ba3432b960d91b6020820152610af586828585610afe565b50949350505050565b60038054906000610b0e83610f2b565b909155505060035460008181526004602052604090208181556005810180546001600160a01b0319163317905560018101610b498782611099565b5060028101610b588682611099565b506003810193909355506004909101555050565b60005b83811015610b87578181015183820152602001610b6f565b50506000910152565b60008151808452610ba8816020860160208601610b6c565b601f01601f19169290920160200192915050565b60006020808301818452808551808352604092508286019150828160051b87010184880160005b83811015610c6657603f19898403018552815160c08151855288820151818a870152610c1182870182610b90565b9150508782015185820389870152610c298282610b90565b606084810151908801526080808501519088015260a0938401516001600160a01b0316939096019290925250509386019390860190600101610be3565b509098975050505050505050565b600060208284031215610c8657600080fd5b5035919050565b60208152600061080b6020830184610b90565b634e487b7160e01b600052604160045260246000fd5b604051601f8201601f1916810167ffffffffffffffff81118282101715610cdf57610cdf610ca0565b604052919050565b600067ffffffffffffffff821115610d0157610d01610ca0565b50601f01601f191660200190565b600082601f830112610d2057600080fd5b8135610d33610d2e82610ce7565b610cb6565b818152846020838601011115610d4857600080fd5b816020850160208301376000918101602001919091529392505050565b600060208284031215610d7757600080fd5b813567ffffffffffffffff811115610d8e57600080fd5b610d9a84828501610d0f565b949350505050565b60008060408385031215610db557600080fd5b823567ffffffffffffffff811115610dcc57600080fd5b610dd885828601610d0f565b92505060208301356001600160a01b0381168114610df557600080fd5b809150509250929050565b600080600060608486031215610e1557600080fd5b833567ffffffffffffffff80821115610e2d57600080fd5b610e3987838801610d0f565b94506020860135915080821115610e4f57600080fd5b50610e5c86828701610d0f565b925050604084013590509250925092565b60008060408385031215610e8057600080fd5b823567ffffffffffffffff811115610e9757600080fd5b610ea385828601610d0f565b95602094909401359450505050565b634e487b7160e01b600052601160045260246000fd5b8082018082111561060a5761060a610eb2565b600181811c90821680610eef57607f821691505b602082108103610f0f57634e487b7160e01b600052602260045260246000fd5b50919050565b634e487b7160e01b600052603260045260246000fd5b600060018201610f3d57610f3d610eb2565b5060010190565b60008251610f56818460208701610b6c565b9190910192915050565b600060208284031215610f7257600080fd5b5051919050565b600082610f9657634e487b7160e01b600052601260045260246000fd5b500490565b808202811582820484141761060a5761060a610eb2565b600060208284031215610fc457600080fd5b8151801515811461080b57600080fd5b600060208284031215610fe657600080fd5b815167ffffffffffffffff811115610ffd57600080fd5b8201601f8101841361100e57600080fd5b805161101c610d2e82610ce7565b81815285602083850101111561103157600080fd5b611042826020830160208601610b6c565b95945050505050565b601f82111561095057600081815260208120601f850160051c810160208610156110725750805b601f850160051c820191505b818110156110915782815560010161107e565b505050505050565b815167ffffffffffffffff8111156110b3576110b3610ca0565b6110c7816110c18454610edb565b8461104b565b602080601f8311600181146110fc57600084156110e45750858301515b600019600386901b1c1916600185901b178555611091565b600085815260208120601f198616915b8281101561112b5788860151825594840194600190910190840161110c565b50858210156111495787850151600019600388901b60f8161c191681555b5050505050600190811b0190555056fea2646970667358221220d76513c2b0256bc8e1ce644098013b90f1763ef610f848d420cf2c739bf5123964736f6c6343000814003360806040523480156200001157600080fd5b5060405162000ca538038062000ca583398101604081905262000034916200022d565b8181600362000044838262000325565b50600462000053828262000325565b50505062000073336a084595161401484a0000006200007b60201b60201c565b505062000419565b6001600160a01b038216620000d65760405162461bcd60e51b815260206004820152601f60248201527f45524332303a206d696e7420746f20746865207a65726f206164647265737300604482015260640160405180910390fd5b8060026000828254620000ea9190620003f1565b90915550506001600160a01b0382166000908152602081905260408120805483929062000119908490620003f1565b90915550506040518181526001600160a01b038316906000907fddf252ad1be2c89b69c2b068fc378daa952ba7f163c4a11628f55a4df523b3ef9060200160405180910390a35050565b505050565b634e487b7160e01b600052604160045260246000fd5b600082601f8301126200019057600080fd5b81516001600160401b0380821115620001ad57620001ad62000168565b604051601f8301601f19908116603f01168101908282118183101715620001d857620001d862000168565b81604052838152602092508683858801011115620001f557600080fd5b600091505b83821015620002195785820183015181830184015290820190620001fa565b600093810190920192909252949350505050565b600080604083850312156200024157600080fd5b82516001600160401b03808211156200025957600080fd5b62000267868387016200017e565b935060208501519150808211156200027e57600080fd5b506200028d858286016200017e565b9150509250929050565b600181811c90821680620002ac57607f821691505b602082108103620002cd57634e487b7160e01b600052602260045260246000fd5b50919050565b601f8211156200016357600081815260208120601f850160051c81016020861015620002fc5750805b601f850160051c820191505b818110156200031d5782815560010162000308565b505050505050565b81516001600160401b0381111562000341576200034162000168565b620003598162000352845462000297565b84620002d3565b602080601f831160018114620003915760008415620003785750858301515b600019600386901b1c1916600185901b1785556200031d565b600085815260208120601f198616915b82811015620003c257888601518255948401946001909101908401620003a1565b5085821015620003e15787850151600019600388901b60f8161c191681555b5050505050600190811b01905550565b808201808211156200041357634e487b7160e01b600052601160045260246000fd5b92915050565b61087c80620004296000396000f3fe608060405234801561001057600080fd5b50600436106100a95760003560e01c80633950935111610071578063395093511461012357806370a082311461013657806395d89b411461015f578063a457c2d714610167578063a9059cbb1461017a578063dd62ed3e1461018d57600080fd5b806306fdde03146100ae578063095ea7b3146100cc57806318160ddd146100ef57806323b872dd14610101578063313ce56714610114575b600080fd5b6100b66101a0565b6040516100c391906106c6565b60405180910390f35b6100df6100da366004610730565b610232565b60405190151581526020016100c3565b6002545b6040519081526020016100c3565b6100df61010f36600461075a565b61024c565b604051601281526020016100c3565b6100df610131366004610730565b610270565b6100f3610144366004610796565b6001600160a01b031660009081526020819052604090205490565b6100b6610292565b6100df610175366004610730565b6102a1565b6100df610188366004610730565b610321565b6100f361019b3660046107b8565b61032f565b6060600380546101af906107eb565b80601f01602080910402602001604051908101604052809291908181526020018280546101db906107eb565b80156102285780601f106101fd57610100808354040283529160200191610228565b820191906000526020600020905b81548152906001019060200180831161020b57829003601f168201915b5050505050905090565b60003361024081858561035a565b60019150505b92915050565b60003361025a85828561047e565b6102658585856104f8565b506001949350505050565b600033610240818585610283838361032f565b61028d9190610825565b61035a565b6060600480546101af906107eb565b600033816102af828661032f565b9050838110156103145760405162461bcd60e51b815260206004820152602560248201527f45524332303a2064656372656173656420616c6c6f77616e63652062656c6f77604482015264207a65726f60d81b60648201526084015b60405180910390fd5b610265828686840361035a565b6000336102408185856104f8565b6001600160a01b03918216600090815260016020908152604080832093909416825291909152205490565b6001600160a01b0383166103bc5760405162461bcd60e51b8152602060048201526024808201527f45524332303a20617070726f76652066726f6d20746865207a65726f206164646044820152637265737360e01b606482015260840161030b565b6001600160a01b03821661041d5760405162461bcd60e51b815260206004820152602260248201527f45524332303a20617070726f766520746f20746865207a65726f206164647265604482015261737360f01b606482015260840161030b565b6001600160a01b0383811660008181526001602090815260408083209487168084529482529182902085905590518481527f8c5be1e5ebec7d5bd14f71427d1e84f3dd0314c0f7b2291e5b200ac8c7c3b925910160405180910390a3505050565b600061048a848461032f565b905060001981146104f257818110156104e55760405162461bcd60e51b815260206004820152601d60248201527f45524332303a20696e73756666696369656e7420616c6c6f77616e6365000000604482015260640161030b565b6104f2848484840361035a565b50505050565b6001600160a01b03831661055c5760405162461bcd60e51b815260206004820152602560248201527f45524332303a207472616e736665722066726f6d20746865207a65726f206164604482015264647265737360d81b606482015260840161030b565b6001600160a01b0382166105be5760405162461bcd60e51b815260206004820152602360248201527f45524332303a207472616e7366657220746f20746865207a65726f206164647260448201526265737360e81b606482015260840161030b565b6001600160a01b038316600090815260208190526040902054818110156106365760405162461bcd60e51b815260206004820152602660248201527f45524332303a207472616e7366657220616d6f756e7420657863656564732062604482015265616c616e636560d01b606482015260840161030b565b6001600160a01b0380851660009081526020819052604080822085850390559185168152908120805484929061066d908490610825565b92505081905550826001600160a01b0316846001600160a01b03167fddf252ad1be2c89b69c2b068fc378daa952ba7f163c4a11628f55a4df523b3ef846040516106b991815260200190565b60405180910390a36104f2565b600060208083528351808285015260005b818110156106f3578581018301518582016040015282016106d7565b506000604082860101526040601f19601f8301168501019250505092915050565b80356001600160a01b038116811461072b57600080fd5b919050565b6000806040838503121561074357600080fd5b61074c83610714565b946020939093013593505050565b60008060006060848603121561076f57600080fd5b61077884610714565b925061078660208501610714565b9150604084013590509250925092565b6000602082840312156107a857600080fd5b6107b182610714565b9392505050565b600080604083850312156107cb57600080fd5b6107d483610714565b91506107e260208401610714565b90509250929050565b600181811c908216806107ff57607f821691505b60208210810361081f57634e487b7160e01b600052602260045260246000fd5b50919050565b8082018082111561024657634e487b7160e01b600052601160045260246000fdfea2646970667358221220aacada07a61d628915cf19082836bbedbe368a91eea03aa6a7259856770047af64736f6c63430008140033",
  "linkReferences": {},
  "deployedLinkReferences": {}
}